:100000000C942A000C9434000C9434000C943400AA
:100010000C9434000C9434000C9434000C94340090
:100020000C9434000C9434000C9434000C94340080
:100030000C9434000C9434000C9434000C94340070
:100040000C9434000C9434000C9434000C94340060
:100050000C94340011241FBECFE5D8E0DEBFCDBF25
:100060000E947E000C94A7000C9400000F931F9335
:10007000CF93DF9397B3906B97BB97B39F7B97BB5F
:1000800098B3906198BB82FB992790F9906C9EB9C8
:10009000062F017010E0000F111F02951295107FBE
:1000A0001027007F10274170C42F90E0D92FCC0F6C
:1000B000DD1FCC0FDD1FCC0FDD1FA22FA170B0E024
:1000C000AA0FBB1FAA0FBB1F81FBEE27E0F9F0E0D0
:1000D000EE0FFF1F0065C02BAC2BEA2B81708E2B1F
:1000E0008DB9DF91CF911F910F9108958FB9779BB3
:1000F000FECF0895779BFECF8FB1089587B38860B8
:1001000087BB20E040E060E081E00E94360088B3D9
:10011000806188BB80E00E94760088B38F7E88BBB8
:100120000E947A00EFE1FEE43197F1F700C0000091
:1001300098B3977F98BB0E94760088B3886088BB8D
:100140008FE19EE40197F1F700C00000E0CFF89442
:02015000FFCFDF
:00000001FF
